:100000004CEF0DF00000000000EF00F000000000D9
:0A0010000000000000000000F3D71C
:10001C000B820BAE18EF00F00368026801680068F1
:08002C000A360232FF0E120039
:0E003400026A016A006A086A036A000E12007E
:100042000B840BAE2CEF00F0010E036E026A016A04
:0A005200006A0A360232FF0E1200A7
:08005C000AAE029E000E120024
:100064000CB074EF00F00CA21AEF01F00E6A000E4F
:1000740002648BEF00F0F00E0214D8A456EF00F0E7
:10008400023A01380F0B02260138F00B016E0038DA
:100094000F0B01260038F00B006E08380F0B0026FA
:1000A4000838F00B086E0E84D89002BE6FEF00F093
:1000B40008360036013602360E2A02BE6FEF00F013
:1000C40008360036013602360E2A02BE6FEF00F003
:1000D40008360036013602360E2A0E50036410EF3D
:1000E40001F0035E0BBC08AE15EF01F0D880800E62
:1000F40008640030000E002201220222D8A015EF6D
:1001040001F0023201320032034A1AEF01F015EF16
:1001140001F001C002F000C001F008C000F0086A5C
:10012400000E0E860264C2EF00F0F00E0214D8A492
:10013400AAEF00F0023A01380F0B02260138F00B47
:10014400016E00380F0B01260038F00B006E0E8490
:10015400D89002BE6FEF00F00036013602360E2A48
:1001640002BE6FEF00F00036013602360E2A02BEE0
:100174006FEF00F00036013602360E2A6FEF00F002
:1001840001C002F000C001F0006A000E0E960E8855
:100194000264EFEF00F0F00E0214D8A4DAEF00F0DE
:1001A400023A01380F0B02260138F00B016E0E845F
:1001B400D89002BE6FEF00F0013602360E2A02BE5E
:1001C4006FEF00F0013602360E2A02BE6FEF00F028
:1001D400013602360E2A6FEF00F001C002F0016A08
:1001E400000E0E8602641FEF01F0F00E0214D8A474
:1001F400FEEF00F0023A0E84D89002BE6FEF00F0DA
:1002040002360E2A02BE6FEF00F002360E2A02BE3C
:100214006FEF00F002360E2A6FEF00F0010E0C6E45
:100224000EDF22EF01F0020E0C6E16DF22EF01F05A
:10023400040E0C6EF1DE22EF01F0080E0C6EF8DEF7
:020244001200A6
:100246000B800BAE2FEF01F0026A0AAEFF0E026EB4
:0C025600016E006E0A360232FF0E12002C
:10026200025006180E6E086A096A0B6A0350076488
:1002720024EF02F006500A6E068E028E03500B6EB9
:100282000750036E000E0B6474EF01F00B50075E13
:10029200D8B415EF02F0070E0764E3EF01F0075E32
:1002A20000C008F001C000F002C001F0026A074E6F
:1002B20015EF02F00764B8EF01F0075E00C008F026
:1002C20001C000F0016A074E15EF02F0076496EFD5
:1002D20001F0075E00C008F0006A074E15EF02F059
:1002E20007647DEF01F00AC002F005C001F004C00E
:1002F20000F0086A3EEF03F0030E076488EF01F096
:10030200075E08380F0B086E074E15EF02F0D89003
:100312000832074E15EF02F0D8900832074E15EF5B
:1003220002F0D890083215EF02F0030E0764A7EF2F
:1003320001F0075E08380F0B086E0038F00B082634
:1003420000380F0B006E074E15EF02F0D890003206
:100352000832074E15EF02F0D89000320832074EED
:1003620015EF02F0D8900032083215EF02F0030EBA
:100372000764CFEF01F0075E08380F0B086E0038F4
:10038200F00B082600380F0B006E0138F00B002628
:1003920001380F0B016E074E15EF02F0D8900132B3
:1003A20000320832074E15EF02F0D89001320032C7
:1003B2000832074E15EF02F0D890013200320832AF
:1003C20015EF02F0030E076400EF02F0075E083833
:1003D2000F0B086E0038F00B082600380F0B006E6A
:1003E2000138F00B002601380F0B016E0238F00BBA
:1003F200012602380F0B026E074E15EF02F0D8905D
:100402000232013200320832074E15EF02F0D89064
:100412000232013200320832074E15EF02F0D89054
:100422000232013200320832096A000E0EAE09EFC2
:1004320003F0081E001E011E021E082A00220122CD
:10044200022209EF03F00750D8A42AEF02F03EEF90
:1004520003F0096A02C00AF0028E068E0750035C9E
:10046200076ED8B4FCEF02F0070E0764CAEF02F081
:10047200075E0450096E0550046E0650056E066A4A
:10048200074EFCEF02F0070E07649FEF02F0075ED3
:100492000450096E0550046E056A074EFCEF02F027
:1004A200070E07647DEF02F0075E0450096E046ACE
:1004B200074EFCEF02F0070E076464EF02F00AC079
:1004C20002F03EEF03F0030E07646FEF02F0075EE7
:1004D20009380F0B096E074EFCEF02F0D890093273
:1004E200074EFCEF02F0D8900932074EFCEF02F003
:1004F200D8900932FCEF02F0030E07648EEF02F08F
:10050200075E09380F0B096E0438F00B0926043810
:100512000F0B046E074EFCEF02F0D8900432093242
:10052200074EFCEF02F0D89004320932074EFCEF7E
:1005320002F0D89004320932FCEF02F0030E076495
:10054200B6EF02F0075E09380F0B096E0438F00BA4
:10055200092604380F0B046E0538F00B0426053803
:100562000F0B056E074EFCEF02F0D89005320432F5
:100572000932074EFCEF02F0D890053204320932FC
:10058200074EFCEF02F0D890053204320932FCEF3C
:1005920002F0030E0764E7EF02F0075E09380F0B63
:1005A200096E0438F00B092604380F0B046E053867
:1005B200F00B042605380F0B056E0638F00B0526E6
:1005C20006380F0B066E074EFCEF02F0D89006328B
:1005D200053204320932074EFCEF02F0D89006329F
:1005E200053204320932074EFCEF02F0D89006328F
:1005F200053204320932086A000E0EAE09EF03F02A
:10060200091E041E051E061E092A042205220622B0
:1006120009500826045000220550012206500222E9
:100622000EBE20EF03F0D8A02FEF03F0023201320A
:1006320000320832033E2FEF03F039EF03F0D8B057
:1006420034EF03F0000E081E001E011E021E082ACF
:100652000022012202220A7E34EF03F0010E0C6E08
:1006620000DD40EF03F0020E0C6EFBDC40EF03F006
:10067200040E0C6ED2DC40EF03F0000E0C6E120082
:10068200086A096A000E07620364C6EF03F00250AB
:1006920006180A6E075003267E0ED8A057EF03F005
:1006A200035ED8B0CAEF03F05BEF03F0035ED8A09D
:1006B200CEEF03F0028E068E02C00EF001C00BF0E8
:1006C20000C00DF000500402F4CF0CF001500502FE
:1006D200F4CF00F0F3CF08F00402F3500C26F450EC
:1006E2000822000E00220D500502F3500C26F45091
:1006F2000822000E002202500402F3500826F45091
:10070200002202500502016A000E0122F350002667
:10071200F45001220D500602F3500826F450002234
:10072200026A000E012202220B500602F35000263A
:10073200F4500122000E02220E500602F35001264E
:10074200F450022202BEAEEF03F008360036013644
:1007520002360306D8B4CEEF03F0C1EF03F0D8801F
:10076200800E08640030000E002201220222D8A06E
:10077200C1EF03F0023201320032034ACAEF03F042
:100782000AAE029E000ED0EF03F0010E52DCD0EF53
:1007920003F0020E42DCD0EF03F0040E51DC120033
:1007A2000C6A0E6A0250D8A4EAEF03F001C002F00C
:1007B20000C001F0006A0E860250D8A4EAEF03F0EE
:1007C20001C002F0016A0E960E880250D8B4FCEF06
:1007D20003F00E50035ED8A4D8A001EF04F0D89025
:1007E20002BE06EF04F0003601360236032EF1EFA8
:1007F20003F001EF04F0010E0C6E1BDC09EF04F0B4
:10080200020E0C6E1DDC09EF04F0040E0C6E25DCEA
:020812001200D2
:100814000050086E0150006E0250016E0350026ECB
:10082400036A0B6A0C6A9E0E036E0A6A02AE27EF15
:1008340004F0081E001E011E021E082AD8B4002A55
:10084400D8B4012AD8B4022A0A8E020E0C6E08DC2F
:02085400120090
:100856000B6A0C6A086A0350D8B4AFEF04F002C002
:100866000AF0028E9E0E035E03AE9FEF04F0036C49
:10087600080E035CD8A06CEF04F0036E083600C0C7
:1008860008F001C000F002C001F0026A080E035C25
:10089600D8A06CEF04F0036E083600C008F001C063
:1008A60000F0016A080E035CD8A06CEF04F0036E3A
:1008B600083600C008F0006A080E035CD8A06CEF8A
:1008C60004F0036E0836086A0350D8A4D89078EF6F
:1008D60004F00350D8B478EF04F0D8900232013215
:1008E60000320832032E70EF04F00BBC08A089EF2B
:1008F60004F0D8A089EF04F0082AD8B4002AD8B4A6
:10090600012AD8B4022A02BEB3EF04F00AAEAFEF52
:1009160004F0021E011E001E081E082AD8B4002A72
:10092600D8B4012AD8B4022AAFEF04F0026A016AE9
:10093600006A086AAFEF04F00B800BAEB9EF04F063
:10094600026A0AAEB9EF04F0026E016E006E086E1E
:100956000A360232B9EF04F00C6A000EBAEF04F060
:10096600010E0C6E000E6CDCBAEF04F0FF0E0250A6
:10097600036E0150026E0050016E0850006E1200A8
:100986000A6A0350D8A40A800750D8A40A820A50DB
:10099600D8B426EF05F0030AD8B4DFEF04F00AB0A6
:1009A600DAEF04F006AE24EF05F022EF05F002AE12
:1009B60022EF05F024EF05F00250800B0A6E029E2E
:1009C6000650800B069E0A18D8B4F0EF04F00A50C1
:1009D600D8B422EF05F024EF05F00750035CD8B435
:1009E600FAEF04F0D8A016EF05F01CEF05F006505C
:1009F600025CD8B404EF05F0D8A016EF05F01CEFA2
:100A060005F00550015CD8B40EEF05F0D8A016EF3E
:100A160005F01CEF05F00450005CD8B426EF05F095
:100A2600D8B01CEF05F00A52D8B424EF05F022EF37
:100A360005F00A52D8B422EF05F024EF05F0D8806D
:0E0A46001200D8901200D880D884120012003E
:060A5400067E05DC120025
:080A5A000B6A0B86FF0E12006F
:100A62006AC000F0016A026A036AFF0E0016000EF5
:100A7200011600C06FF001C070F07F0E005C026EC4
:100A8200000E0158036E02C06FF003C070F0800EBA
:100A92000318006E800E005C02E1000E025C21E28F
:100AA200046A056A066A076A67C000F068C001F056
:100AB20069C002F06AC003F065DF010ED8B0000E13
:100AC200006E005209E0000E006E000E016E800EF4
:100AD200026E7F0E036E5AD0006A016A026A036ACE
:100AE20055D0000E006E00017051005C02E16F51A2
:100AF200180809E267C000F068C001F069C002F09E
:100B02006AC003F043D067C000F068C001F069C05A
:100B120002F06AC003F09EDE7CDE00C06BF001C012
:100B22006CF002C06DF003C06EF000C004F001C0B2
:100B320005F002C006F003C007F067C000F068C00D
:100B420001F069C002F06AC003F01CDF010ED8B0E8
:100B5200000E006E005212E0000E046E000E056ED2
:100B6200000E066E7F0E076E6BC000F06CC001F0C7
:100B72006DC002F06EC003F06CDF08D06BC000F0F5
:0E0B82006CC001F06DC002F06EC003F01200F6
:100B900003500718D8A4DCEF05F002500618D8A4BB
:100BA000DCEF05F001500518D8A4DCEF05F000508B
:0E0BB0000418D8B4D8841200D8941200120091
:100BBE000450000A12E10550000A0FE10650000A27
:100BCE000CE10750000A09E1FF0E006EFF0E016EE8
:100BDE007F0E026EFF0E036EA7D0086A096A0750D9
:100BEE00D8B48AEF06F00350D8B48EEF06F0025058
:100BFE0006180A6E028E068E0E6A02C008F001C03A
:100C0E000CF000C00DF004500D5E0550D8A0053C50
:100C1E000C5E0650D8A0063C085E086A0C6A0D6A87
:100C2E00D8A021EF06F0D8900232013200320832FD
:100C3E00010E0E6E0750035ED8A02EEF06F07E0E4C
:100C4E000E240326D8B093EF06F034EF06F07E0E96
:100C5E000E240326D8A098EF06F0180E0B6E0D3654
:100C6E000C3608360036013602360E360450005E5B
:100C7E000550D8A0053C015E0650D8A0063C025E89
:100C8E0006340E120EA04FEF06F00D805AEF06F04E
:100C9E00045000260550D8B0053C01260650D8B0A9
:100CAE00062802260D900B2E36EF06F080EF06F08A
:100CBE00D8900036013602360E360450005E0550CE
:100CCE00D8A0053C015E0650D8A0063C025E063454
:100CDE000E10010B0D26D8B00C2AD8B4082AD8A4B1
:100CEE0080EF06F008320C320D32032AD8B493EF9F
:100CFE0006F00AAE089E0850026E0C50016E0D50A2
:100D0E00006E9BEF06F0010EA1DE9BEF06F0020EC9
:100D1E001AEC00F09BEF06F0040E0EEC00F09BEFC9
:0A0D2E0006F0080E21EC00F01200A0
:100D38000B6A0350D8B4E2EF06F002500A6E028E36
:100D48008E0E035E03AEE6EF06F0036C080E035C3E
:100D5800D8A0C1EF06F0036E013602C001F0026AA6
:100D6800080E035CD8A0C1EF06F0036E0136016AD5
:100D78000350D8A4D890CBEF06F00350D8B4CBEFEB
:100D880006F0D89002320132032EC5EF06F00BBCF4
:100D980001A0D8EF06F0D8A0D8EF06F0012AD8B401
:100DA800022A02BEF5EF06F00AAEFBEF06F0021EBD
:100DB800011E012AD8B4022AFBEF06F0026A016A72
:100DC800FBEF06F00B800BAEFFEF06F0026A0AAEEF
:100DD800FFEF06F0FF0E026E016E0A360232FFEFD9
:100DE80006F0010E0C6E23EC01F001EF07F0000E87
:100DF8000C6E01EF07F0FF0E0C6E0150006E0250F2
:040E0800016E120065
:100E0C00670E00016D6F000E6E6F030E6D25D96EAF
:100E1C00000E6E21DA6EDE506B25016E000E6C2119
:100E2C00026E01C06BF002C06CF0800E0218006EF6
:100E3C00800E005C02E1000E015C05E2006A016AB2
:100E4C00026A036A3ED0800E006E800E6C19005C44
:100E5C0002E16B51FF0825E2046A056A066A076A1B
:100E6C0067C000F068C001F069C002F06AC003F00E
:100E7C0084DD010ED8B0000E006E005209E0FF0EAA
:100E8C00006EFF0E016EFF0E026EFF0E036E19D088
:100E9C00FF0E006EFF0E016E7F0E026EFF0E036ED4
:100EAC0010D0030E6D25E16E000E6E21E26E6BC04C
:100EBC00E6FF67C000F068C001F069C002F06AC0CC
:040ECC0003F012001D
:0A0ED0001D0E0D6E0D2EFED7120050
:100EDA006EC000F06FC001F0000E00016FBFFF0E80
:100EEA00026E036E00360090013602360336003673
:100EFA0000900136023603366B510024F66E6C51AF
:100F0A000120F76E6D510220F86E0900F5CF70F0DE
:100F1A000900F5CF71F00900F5CF72F00900F5CF9D
:100F2A0073F06E516F1149E067C000F068C001F0BC
:100F3A0069C002F06AC003F070C004F071C005F025
:100F4A0072C006F073C007F041EC03F0010E6E5F49
:100F5A00000E6F5B6EC004F06FC005F0000E6FBF2D
:100F6A00FF0E066E076E04360490053606360736FF
:100F7A00043604900536063607366B510424F66E9D
:100F8A006C510520F76E6D510620F86E0900F5CFF9
:100F9A0004F00900F5CF05F00900F5CF06F00900C5
:100FAA00F5CF07F031EC01F000C070F001C071F02C
:100FBA0002C072F003C073F0B4D770C000F071C001
:0C0FCA0001F072C002F073C003F01200CE
:100FD60000C008F00150006E016A026A036A0B6ADB
:100FE6000C6A016A026A036A960E036E0A6A00AE0A
:100FF60003EF08F0081E001E082AD8B4002A0A8E3D
:1010060000C001F008C000F0086A026AD1EC03F0E3
:021016001200C6
:10101800670E046E000E056E030E0424E96E000EC2
:101028000520EA6E7E0EEE5C006E016A000E015A23
:101038006BC0E1FF6CC0E2FF00C0E6FF01C0E6FF45
:10104800030E0424E16E000E0520E26E7E0EE66EAD
:1010580067C000F068C001F069C002F06AC003F020
:02106800120074
:10106A00830EC2165CC000F0003600900036009075
:10107A000050C21228DFC282C2A201D0FDD7C4CF5B
:0E108A0001F0006AC3500012000E01121200A5
:10109800C26A070EC012C08E5CC000F00036009015
:1010A800003600900050C212C2800EDFC282C2A277
:1010B80001D0FDD7C4CF01F0006AC3500012000E62
:0610C8000112C2901200AB
:1010CE005CC004F05DC005F05EC006F05FC007F0C6
:1010DE00006A016A026A036A4FDC000ED8B0010E84
:1010EE00006E005205E0006A016A026A036A69D066
:1010FE005CC067F05DC068F05EC069F05FC06AF00A
:10110E00610E00016B6F000E6C6F7FDF000E046EC0
:10111E00000E056E000E066E800E076E41EC03F09B
:10112E00000E046E000E056E000E066E7F0E076E2C
:10113E008ADC00C05CF001C05DF002C05EF003C04E
:10114E005FF0010E615F000E625B00C067F001C0D0
:10115E0068F002C069F003C06AF02A0E6B6F1B0EB6
:10116E006C6F000E6D6F080E6E6F000E6F6FAEDE41
:10117E0000C063F001C064F002C065F003C066F009
:10118E0063C05CF064C05DF065C05EF066C05FF089
:10119E0061C000F062C001F017DF180E046E720E0F
:1011AE00056E310E066E7E0E076E41EC03F063C0C7
:1011BE0004F064C005F065C006F066C007F031ECBF
:0411CE0001F012001A
:1011D200046A056A066A076A5CC000F05DC001F035
:1011E2005EC002F05FC003F0D2DC010ED8A4000E94
:1011F200006E005209E0000E006E000E016E000E3D
:10120200026E7F0E036EFCD05CC004F05DC005F080
:101212005EC006F05FC007F0FC0E006ED40E016ED9
:10122200320E026E850E036EC3EC04F0010ED8B0CE
:10123200000E006E005209E0FF0E006EFF0E016EFE
:101242007F0E026EFF0E036EDBD04F0E046EAC0EED
:10125200056EAE0E066E850E076E5CC000F05DC0B8
:1012620001F05EC002F05FC003F0C3EC04F0010EB7
:10127200D8B0000E006E005205E0006A016A026AF0
:10128200036ABED0046A056A066A076A5CC000F097
:101292005DC001F05EC002F05FC003F0C3EC04F079
:1012A200010ED8B0000E006E00C060F00052D8A44B
:1012B2005E7E5CC000F05DC001F05EC002F05FC007
:1012C20003F03B0E046EAA0E056E380E066E7F0EFC
:1012D200076E41EC03F000C05CF001C05DF002C09B
:1012E2005EF003C05FF000C067F001C068F002C0AA
:1012F20069F003C06AF031EC05F01DDD00C061F059
:1013020001C062F067DE00C004F001C005F002C057
:1013120006F003C007F05CC000F05DC001F05EC0E3
:1013220002F05FC003F02AEC05F000C05CF001C0DF
:101332005DF002C05EF003C05FF000C067F001C064
:1013420068F002C069F003C06AF0020E00016B6F20
:101352001B0E6C6F000E6D6F090E6E6F000E6F6FBD
:10136200BBDD00C067F001C068F002C069F003C0D5
:101372006AF061C06BF062C06CF047DD00C05CF0E7
:1013820001C05DF002C05EF003C05FF0605330E068
:10139200FF0E046EFF0E056E7F0E066EFF0E076EC9
:1013A2005CC000F05DC001F05EC002F05FC003F0FF
:1013B200C8EC05F0010ED8A4000E006E005205E044
:1013C200006A016A026A036A1BD05CC004F05DC055
:1013D20005F05EC006F05FC007F0000E006E000E62
:1013E200016E000E026E7F0E036EDFEC05F008D078
:1013F2005CC000F05DC001F05EC002F05FC003F0AF
:021402001200D6
:101404007A0E236E170E246E350E256E000E266E90
:10141400FF0E1B6EFF0E1C6E000E1D6E000E1E6E68
:10142400FF0E1F6EFF0E206E000E216E000E226E48
:10143400FF0E2C6EFF0E2D6E000E2E6E000E2F6E04
:10144400AC8A900EAB6E948E949C9EAA03D0AECFC1
:0614540000F0FBD71200BE
:10145A004FC027F050C028F051C029F052C02AF0DE
:0A146A0053C02BF054C034F0120000
:101474006A0E306E100E316E5C0E326E000E336EDC
:0C148400C26A070EC012C08EC2801200A7
:101490000050086E0150006E016A026A036A0B6A0E
:1014A0000C6A960E036E0A6A00C001F008C000F0D4
:0A14B000086A026AD1EC03F0120092
:1014BA00F250026EF29E0500FF6A0150FE6E005065
:0814CA00FD6E02BEF28E12005D
:1014D2005B6A046A056A066A076A53C000F054C070
:1014E20001F055C002F056C003F0C8EC05F0010E41
:1014F200D8A4000E006E005209E0000E006E000E2D
:10150200016E000E026E7F0E036EA5D0046A056A9C
:10151200066A076A4FC000F050C001F051C002F0E5
:1015220052C003F0C8EC05F0010ED8A4000E006E04
:10153200005205E0006A016A026A036A8CD0046AFA
:10154200056A066A076A4FC000F050C001F051C038
:1015520002F052C003F0C3EC04F0010ED8B0000E4A
:10156200006E00522DE053C000F054C001F055C08F
:1015720002F056C003F02BEC04F000C057F001C09B
:1015820058F002C059F003C05AF00AEC04F053C0FC
:1015920004F054C005F055C006F056C007F0C8EC80
:1015A20005F0000ED8A4010E006E005205E0006A9C
:1015B200016A026A036A4FD0010E57145B6E517EB4
:1015C2004FC05CF050C05DF051C05EF052C05FF0A1
:1015D2007DDD00C04FF001C050F002C051F003C0E9
:1015E20052F053C004F054C005F055C006F056C086
:1015F20007F041EC03F000C04FF001C050F002C010
:1016020051F003C052F000C05CF001C05DF002C0B6
:101612005EF003C05FF0DCDD00C04FF001C050F0AF
:1016220002C051F003C052F05B520DE0000E4F18A1
:10163200006E000E5018016E800E5118026E000EE0
:101642005218036E08D04FC000F050C001F051C0D4
:0816520002F052C003F0120087
:10165A000900F5CFE6FF0006FBE10106F9E11200F9
:10166A0004DF040E0F01386F040E926E896AB88681
:10167A00B06A310EAF6EAC84C0DE980E4F6E100E9B
:10168A00506E5C0E516E000E526E020E536E546A0C
:04169A00DFDE12007D
:10169E000B6A0C6A0A6A0350D8B499EF0BF0028EEB
:1016AE008E0E035E03BE61EF0BF0D8B461EF0BF04C
:1016BE009DEF0BF0036C080E035CD8A078EF0BF0D7
:1016CE00036E013602C001F0026A080E035CD8A058
:1016DE0078EF0BF00136016A0350D8A4D89082EF50
:1016EE000BF00350D8B482EF0BF0D89002320132D7
:1016FE00032E7CEF0BF00BBC01A08FEF0BF0D8A0EC
:10170E008FEF0BF0012AD8B4022A02BEACEF0BF019
:10171E000AAEB2EF0BF0021E011E012AD8B4022A45
:10172E00B2EF0BF0026A016AB2EF0BF00B800BAE58
:10173E00B6EF0BF0026A0AAEB6EF0BF0FF0E026EBA
:10174E00016E0A360232B6EF0BF0010E0C6E23EC70
:10175E0001F0B8EF0BF0000E0C6EB8EF0BF0FF0EB1
:0C176E000C6E0150006E0250016E120063
:0E177A00ACB202D00000FCD735C0ADFF1200AB
:1017880029C0E1FF2AC0E2FF2BC0E6FF27C000F016
:1017980028C001F08EDE00C035F001C036F06BD1F4
:1017A800376A386A396A3A6A0A0E3B6ED70E3C6E57
:1017B800A30E3D6E7F0E3E6EE10E3F6E7A0E406EBA
:1017C8002A0E416E830E426E436A446A456A466A2F
:1017D80035C000F036C001F057DE330E046E330E0C
:1017E800056E530E066E760E076E41EC03F000C0D0
:1017F80037F001C038F002C039F003C03AF000C039
:1018080004F001C005F002C006F003C007F0000EA6
:10181800006E000E016E000E026E800E036EC3ECA9
:1018280004F0010ED8B0000E006E005219E1CD0E82
:10183800046ECC0E056E4C0E066E7C0E076E37C01D
:1018480000F038C001F039C002F03AC003F0C3EC30
:1018580004F0010ED8B0000E006E005201E105D070
:10186800006A016A026A036A12D137C04FF038C0B1
:1018780050F039C051F03AC052F03BC053F03CC070
:1018880054F03DC055F03EC056F01FDE00C043F096
:1018980001C044F002C045F003C046F03FC004F068
:1018A80040C005F041C006F042C007F041EC03F02B
:1018B80000C043F001C044F002C045F003C046F048
:1018C800E6D00A0E476ED70E486E470E496E840E54
:1018D8004A6E1F0E4B6E850E4C6EAB0E4D6E7F0E14
:1018E8004E6E436A446A456A466A35C000F036C09F
:1018F80001F0CADD670E046E400E056E530E066ECB
:10190800740E076E41EC03F000C037F001C038F0E8
:1019180002C039F003C03AF000C004F001C005F07D
:1019280002C006F003C007F0000E006E000E016E44
:10193800400E026E800E036EC3EC04F0010ED8B0A8
:10194800000E006E005205E0006A016A026A036A2E
:101958009ED037C04FF038C050F039C051F03AC06F
:1019680052F04BC053F04CC054F04DC055F04EC02F
:1019780056F0ABDD00C043F001C044F002C045F0B2
:1019880003C046F047C004F048C005F049C006F05F
:101998004AC007F041EC03F000C043F001C044F036
:1019A80002C045F003C046F000C004F001C005F0D5
:1019B80002C006F003C007F0000E006E000E016EB4
:1019C800200E026E830E036EC3EC04F0000ED8B036
:1019D800010E006E005209E043C000F044C001F05F
:1019E80045C002F046C003F052D043C004F044C0E2
:1019F80005F045C006F046C007F0000E006E000E68
:101A0800016E200E026E830E036EC3EC04F0010E0D
:101A1800D8B0000E006E00522BE043C004F044C062
:101A280005F045C006F046C007F0000E006E000E37
:101A3800016E5C0E026E850E036EC3EC04F0000EA0
:101A4800D8B0010E006E005213E0000E046E000EB6
:101A5800056E400E066E800E076E43C000F044C04F
:101A680001F045C002F046C003F02AEC05F00FD0A3
:101A78000ED00DD00CD03450000AD8B491D63450C2
:101A8800010AD8B41ED73450020AF3E0F3D7120083
:101A9800156A166A176A186A196A1A6AE2DD70DE28
:101AA800000E046E000E056E480E066E850E076E5B
:101AB80041EC03F0F0DD00C019F001C01AF001C0DC
:101AC80005F0066A05C017F006C018F005C003F057
:101AD800026A0250005C156E03500158166E010E22
:101AE800356E47DE17C035F044DE020E356E41DE36
:0A1AF80015C035F03EDED3D7FFD74E
:101B02000000007F1872317EF0FD757C4758637AC1
:101B120058951D7882C42E75A8782172EF93006FB4
:081B2200A092276B46561568DE
:101B2A00FFE65B5DC4FF7F7E80EFFF7D90E1297D4C
:101B3A00EC82F67C82AD2B7C0E3CC37B87D1137A78
:041B4A004178D37794
:020000040030CA
:0D000100231F3CFFBF81FF0FC00FE00F4029
:00000001FF
